S01800005254435F4453333233312D616C61726D2E737265632A
S113000033C000004DC000004BC0000049C00000D8
S113001047C0000045C0000043C0000041C00000CC
S11300203FC000003DC000003BC0000039C00000DC
S113003037C0000035C0000033C0000031C00000EC
S11300402FC000002DC000002BC0000029C00000FC
S113005027C0000025C0000023C0000021C000000C
S11300601FC000001DC0000011241FBECFEFD8E048
S1130070DEBFCDBF18E0A0E0B1E0E0E2F8E102C0ED
S113008005900D92AE33B107D9F728E0AEE3B8E09E
S113009001C01D92AD34B207E1F76BD70C940E0C7E
S11300A0AFCFCF93DF931F92CDB7DEB74983DC0187
S11300B01496ED91FC91159721E030E0AE014F5F6D
S11300C05F4F88E6099591E0811101C090E0892F86
S11300D00F90DF91CF91089530E0DC011696ED91F9
S11300E0FC91179788E6099591E0811101C090E091
S11300F0892F0895382F3F70982F92959F70990FEC
S1130100292F220F220F892F820F830F0895CF9258
S1130110DF92EF92FF921F93CF93DF93CDB7DEB7B9
S113012027970FB6F894DEBF0FBECDBF009709F432
S113013079C0DC011E961C911E97113009F074C021
S11301406B017C01672B69F480E091E09F938F93AE
S11301501896ED91FC91199709950F900F9012E064
S113016064C0AE014F5F5F4F87E0FA0111928A9538
S1130170E9F727E060E0CD01AFDF882369F085E689
S113018093E09F938F93D7011896ED91FC91199763
S113019009950F900F9049C08F81ACDF9E81492F44
S11301A0441F4427441F282F30E02A53384FB4E615
S11301B04B9F200D311D1124F60131832083892F9B
S11301C08F7198DFD60112968C938C8193DFF601A0
S11301D083838D818FDFD60114968C9314978B8142
S11301E085FB992790F919969C93199786FB992773
S11301F090F918969C93913029F48F717BDFF60166
S1130200858305C08F7376DFD60115968C938A811A
S113021071DFF601868389816DDFD60117968C9391
S113022010E003C012E001C013E0812F27960FB63F
S1130230F894DEBF0FBECDBFDF91CF911F91FF9029
S1130240EF90DF90CF900895EF92FF920F931F935A
S1130250CF93DF931F92CDB7DEB70097B9F1DC01DE
S11302601E961C911130A1F5062F7C0121E0AE01F0
S11302704F5F5F4F6EE030DF882369F08FE794E0D3
S11302809F938F93D7011896ED91FC911997099537
S11302900F900F9020C049814F77002311F080E028
S11302A001C080E8482B49836EE0C701FADE882349
S11302B089F08DE994E09F938F93D7011896ED917F
S11302C0FC91199709950F900F9005C012E003C097
S11302D013E001C010E0812F0F90DF91CF911F91A7
S11302E00F91FF90EF900895DF92EF92FF920F939A
S11302F01F93CF93DF931F92CDB7DEB7009709F416
S113030044C0DC011E961C91113009F040C0042F3A
S1130310D62E7C0121E0AE014F5F5F4F6EE0DCDE44
S1130320882369F08FE794E09F938F93D701189601
S1130330ED91FC91199709950F900F902BC081E0D6
S113034090E00D2C02C0880F991F0A94E2F7809563
S113035049814823802F90E002C0880F991FDA94C6
S1130360E2F7482B49836EE0C7019BDE882389F0BE
S11303708DE994E09F938F93D7011896ED91FC91AA
S1130380199709950F900F9005C012E003C013E070
S113039001C010E0812F0F90DF91CF911F910F9139
S11303A0FF90EF90DF900895EF92FF920F931F93C9
S11303B0CF93DF931F92CDB7DEB70097A9F1DC018D
S11303C01E961C91113091F5062F7C0121E0AE019F
S11303D04F5F5F4F6EE080DE882369F08FE794E023
S11303E09F938F93D7011896ED91FC9119970995D6
S11303F00F900F901EC049814B7F602F660F660FD0
S1130400462B49836EE0C7014CDE882389F08DE9D1
S113041094E09F938F93D7011896ED91FC911997CF
S113042009950F900F9005C012E003C013E001C0BE
S113043010E0812F0F90DF91CF911F910F91FF90CA
S1130440EF900895EF92FF920F931F93CF93DF9352
S11304501F92CDB7DEB70097B1F1DC011E961C9157
S1130460113099F5062F7C0121E0AE014F5F5F4FFB
S11304706EE032DE882369F08FE794E09F938F93D8
S1130480D7011896ED91FC91199709950F900F904B
S11304901FC049814F7BB0E40B9FC0011124482B3E
S11304A049836EE0C701FDDD882389F08DE994E07E
S11304B09F938F93D7011896ED91FC911997099505
S11304C00F900F9005C012E003C013E001C010E0CC
S11304D0812F0F90DF91CF911F910F91FF90EF909B
S11304E008950F931F93CF930097C1F0DC011E96DC
S11304F0CC91C130A9F4462F8C0160E1D2DD882370
S113050089F082E195E09F938F93D8011896ED913D
S1130510FC91199709950F900F9005C0C2E003C094
S1130520C3E001C0C0E08C2FCF911F910F910895BB
S1130530CF93DF93009781F0FC018685813071F4BD
S1130540E901CB01BA012FE832EC45EF5DE35AD55E
S1130550C1D5688380E003C082E001C083E0DF91FD
S1130560CF910895FF920F931F93CF93DF931F9220
S1130570CDB7DEB7009709F4D1C0DC0118962D91F0
S11305803C9119972115310509F4CCC08C01ED91EA
S1130590FC91309769F48DE495E09F938F93F90172
S11305A009950F900F900F2EF3E0FF2EF02DBEC093
S11305B0DC0112968D919C911397892B69F488E63E
S11305C095E09F938F93F90109950F900F900F2E4B
S11305D0F3E0FF2EF02DAAC0D80114968D919C91C2
S11305E01597892B69F485E895E09F938F93F9011A
S11305F009950F900F900F2EF3E0FF2EF02D96C06B
S1130600D80116968D919C911797892B69F481EAEC
S113061095E09F938F93F90109950F900F900F2EFA
S1130620F3E0FF2EF02D82C0D8011C968D919C9191
S11306301D97892B69F48CEB95E09F938F93F901B7
S113064009950F900F900F2EF3E0FF2EF02D6EC042
S1130650D8011A968D919C911B97892B69F487ED8B
S113066095E09F938F93F90109950F900F900F2EAA
S1130670F3E0FF2EF02D5AC00995F82E882379F067
S11306808AEF95E09F938F93D8011896ED91FC9192
S1130690199709950F900F90FF24F39447C021E018
S11306A0AE014F5F5F4F6FE0C80116DD8823A9F0EC
S11306B08CEB94E09F938F93D8011896ED91FC9165
S11306C019970995D8011296ED91FC911397099504
S11306D00F900F90FF24F39429C049814F774983E9
S11306E06FE0C801DEDC8823A9F084E196E09F93E3
S11306F08F93D8011896ED91FC9119970995D8011B
S11307001296ED91FC91139709950F900F90FF2489
S1130710F3940CC081E0F801868708C06894FF2434
S1130720F1F804C00F2EF3E0FF2EF02D8F2D0F9063
S1130730DF91CF911F910F91FF9008951F93CF9355
S1130740DF930097C1F0FC0116851130B1F4EC0180
S11307500280F381E02D0995882359F082E396E025
S11307609F938F93E885F98509950F900F90812FBA
S113077005C01E8603C082E001C083E0DF91CF91F3
S11307801F910895EF92FF920F931F93CF93DF93DE
S11307901F92CDB7DEB70097B1F1DC011E961C9114
S11307A0113099F5062F7C0121E0AE014F5F5F4FB8
S11307B06FE092DC882369F08CEB94E09F938F9335
S11307C0D7011896ED91FC91199709950F900F9008
S11307D01FC04981477F602F660F660F660F462B47
S11307E049836FE0C7015DDC882389F084E196E0EA
S11307F09F938F93D7011896ED91FC9119970995C2
S11308000F900F9005C012E003C013E001C010E088
S1130810812F0F90DF91CF911F910F91FF90EF9057
S11308200895CF93DF931F92CDB7DEB7EEE3F8E0E0
S11308308FE0DF011D928A95E9F78CEE94E09183B5
S1130840808383EF94E09383828385EF94E097839E
S113085086838AE295E0958384838AE395E095878D
S113086084878BE395E09187808782E495E0938782
S11308708287CF0177DE882349F08BE796E09F9348
S11308808F93F9D00F900F9081E098C061E08EE3D0
S113089098E0DADC882361F081E996E09F938F93F6
S11308A0EAD08EE398E04ADF0F900F9081E086C093
S11308B040E060E08EE398E017DD882361F081EB8F
S11308C096E09F938F93D7D08EE398E037DF0F9015
S11308D00F9081E073C040E061E08EE398E004DDB6
S11308E0882361F087ED96E09F938F93C4D08EE3C5
S11308F098E024DF0F900F9081E060C060E08EE309
S113090098E052DD882361F08DEF96E09F938F93FA
S1130910B2D08EE398E012DF0F900F9081E04EC0CA
S113092060E08EE398E08EDD882361F086E197E055
S11309309F938F93A0D08EE398E000DF0F900F90E9
S113094081E03CC060E08EE398E01CDF882361F026
S113095087E397E09F938F938ED08EE398E0EEDE4B
S11309600F900F9081E02AC09E012F5F3F4F40E01F
S113097050E0BA018EE398E0DBDD882361F089E57D
S113098097E09F938F9377D08EE398E0D7DE0F9014
S11309900F9081E013C069818EE398E0A2DD882383
S11309A061F08EE797E09F938F9365D08EE398E094
S11309B0C5DE0F900F9081E001C080E00F90DF91C1
S11309C0CF910895BC018EE398E0A1DB91E0811101
S11309D001C090E0892F08951092B90088E48093B3
S11309E0B80080E0089580E00895AF92BF92CF925E
S11309F0DF92EF92FF920F931F93CF93DF93211512
S1130A003105E1F079016A01B62E082F000FAA24FE
S1130A10A394A00E162FC0E0D0E0802F5BD0812FCE
S1130A2064D08A2D57D0CC0DDD1D7FD088831F5F05
S1130A30C12FCB19D0E0CE15DF0578F380E0DF912C
S1130A40CF911F910F91FF90EF90DF90CF90BF90C7
S1130A50AF9008951F93CF93DF93162FEA01880F69
S1130A6039D0812F42D0888140D080E0DF91CF916E
S1130A701F9108950895CF93DF93CDB7DEB7DF912B
S1130A80CF910895089594EA9093BC00ECEBF0E0C4
S1130A9090819923ECF79091B900987F983011F0E8
S1130AA09031A1F48093BB0084E88093BC00ECEB0C
S1130AB0F0E080818823ECF79091B900987F983119
S1130AC039F081E0903429F480E0089581E00895BC
S1130AD080E00895D8CF089584E98093BC00ECEBBE
S1130AE0F0E0808184FDFDCF08958093BB0084E80D
S1130AF08093BC00ECEBF0E080818823ECF79091CC
S1130B00B900987F81E0983209F480E00895CF938A
S1130B10DF93D82FC62F80EDB6DF8D2FE6DF8C2F25
S1130B20E4DFDADFDF91CF91089584E88093BC009D
S1130B30ECEBF0E080818823ECF78091BB00089512
S1130B40CF93C82F80ED9FDF8C2FCFDF81EDC2DFE5
S1130B50ECDFC82FC1DF8C2FCF9108958AB1806F4D
S1130B608AB98AB18B608AB9209A0895CF93DF93AA
S1130B7000D000D0CDB7DEB719821A821B821C8246
S1130B80FE01319627E030E090E061E0AC01022EF6
S1130B9002C0559547950A94E2F740FD60832150C1
S1130BA0310931962330310589F78BB18F708BB9B8
S1130BB02BB1498130E8439FC00111249A8130E46C
S1130BC0939FA0011124482B422B9B8180E2989F84
S1130BD090011124242B9C8130E1939FC0011124A6
S1130BE0822B8BB95B9A85E08A95F1F700005B98BC
S1130BF035E03A95F1F700000F900F900F900F90A9
S1130C00DF91CF910895CF93C82F5898599A5B9844
S1130C10ADDF8C2F8295807FA9DFCF910895CF938C
S1130C20C82F589859985B98A1DF8C2F8295807FA4
S1130C309DDFCF91089557985998589A5B9A85E00B
S1130C408A95F1F7000089B15B9895E09A95F1F7E0
S1130C5000005B9A95E09A95F1F700005B9895E0A7
S1130C609A95F1F7000088234CF35898579A089501
S1130C702FEF81EE94E0215080409040E1F700C0D6
S1130C80000059985B98589880E370DF25E32A9513
S1130C90F1F7000080E36ADF8FE193E00197F1F759
S1130CA000C0000080E362DF8FE391E00197F1F779
S1130CB000C0000088E25ADFBEDF88E2B0DFBBDF9D
S1130CC088E0ADDFB8DF81E0AADFB5DF86E0A7DF2B
S1130CD0B2DF8CE0A4CF089541DFCADF2FEF81EEAD
S1130CE094E0215080409040E1F700C00000089556
S1130CF00F931F93CF93DF9300D0CDB7DEB78C0152
S1130D001A821982E981FA81E80FF91F8081882308
S1130D1099F091DFE981FA81E00FF11F808173DF9F
S1130D2089819A8101969A838983E981FA81E00F06
S1130D30F11F80818111EDCF0F900F90DF91CF9142
S1130D401F910F910895DF92EF92FF920F931F93DB
S1130D50CF93DF93CDB7DEB7AF970FB6F894DEBF6E
S1130D600FBECDBF182FD62E072F842F790120E276
S1130D7030E23A83298320E230E03C832B8396E1FE
S1130D80E3E0F8E0DE015A9601900D929A95E1F7BE
S1130D904F3F31F04AE0BE016F5F7F4F90E025D2B4
S1130DA06FEE77E08D2D902F17D2892B09F4ACC00C
S1130DB06FEE77E0C70110D2892B31F40F2EFAE4DD
S1130DC0EF2EF1E0FF2EF02DCE014A969F938F93E4
S1130DD0FF92EF9249979F938F930F93DF9284EF43
S1130DE097E09F938F931F9285E18F93CE01059691
S1130DF09F938F931DD26DEF77E08D2D902FECD1C3
S1130E000FB6F894DEBF0FBECDBF892BA9F4CE0177
S1130E104A969F938F938AEF97E09F938F931F92A5
S1130E2085E18F93CE0105969F938F9301D20FB6E0
S1130E30F894DEBF0FBECDBF1230A9F018F4113004
S1130E4031F034C01330D9F0143029F12FC080E8C8
S1130E50E6DE9FEF20E732E0915020403040E1F79A
S1130E6000C0000023C080ECDADE8FEF90E722E0C0
S1130E70815090402040E1F700C0000017C084E991
S1130E80CEDE3FEF80E792E0315080409040E1F7C2
S1130E9000C000000BC084EDC2DE2FEF30E782E01B
S1130EA0215030408040E1F700C00000CE0105969B
S1130EB01FDF9FEF20E732E0915020403040E1F700
S1130EC000C0000046C0CE014A969F938F938AE4E7
S1130ED091E09F938F939E012F5F3F4F3F932F93FA
S1130EE09F938F9384EF97E09F938F931F9285E155
S1130EF08F93CE0105969F938F939AD10FB6F89452
S1130F00DEBF0FBECDBF98CF6FEE77E0C70164D1CF
S1130F10892BC9F2CE014A969F938F93FF92EF9249
S1130F2049979F938F938AE491E09F938F9384EFE3
S1130F3097E09F938F931F9285E18F93CE0105963F
S1130F409F938F9375D10FB6F894DEBF0FBECDBFBC
S1130F5073CFAF960FB6F894DEBF0FBECDBFDF914F
S1130F60CF911F910F91FF90EF90DF900895EBCEFA
S1130F700895CF93DF93CDB7DEB72A970FB6F894D1
S1130F80DEBF0FBECDBFA8DE4CDC63E387E0BFDD70
S1130F9065E08EE0BCDD60E08FE0B9DD8FE0D0DDA0
S1130FA0182F80ED70DDCE0101960CDD11702FEE4F
S1130FB037E0412F69E178E081E0D9DF2FEE37E0B7
S1130FC04E8166E278E082E0D2DF2FEE37E04F8197
S1130FD06DE278E083E0CBDF2FEE37E0488566E30F
S1130FE078E084E0C4DF1123C9F22FEF83EC99E0A9
S1130FF0215080409040E1F700C0000060E08FE0A5
S113100086DDCCCF0CD0AEC0A6D040F09DD030F061
S113101021F45F3F19F08FC05111D8C092C0B3D0F2
S113102098F39923C9F35523B1F3951B550BBB27AB
S1131030AA2762177307840738F09F5F5F4F220F58
S1131040331F441FAA1FA9F333D00E2E3AF0E0E851
S113105030D091505040E695001CCAF729D0FE2F9D
S113106027D0660F771F881FBB1F2617370748072F
S1131070AB07B0E809F0BB0B802DBF01FF279358E5
S11310805F4F2AF09E3F510568F055C09FC05F3FF7
S1131090ECF3983EDCF3869577956795B795F795CD
S11310A09F5FC9F7880F911D9695879597F90895C5
S11310B0E1E0660F771F881FBB1F62177307840761
S11310C0BA0720F0621B730B840BBA0BEE1F88F770
S11310D0E095089504D06894B11178C008955BD068
S11310E088F09F5790F0B92F9927B751A0F0D1F00D
S11310F0660F771F881F991F1AF0BA95C9F712C097
S1131100B13081F062D0B1E008955FC0672F782FCD
S11311108827B85F39F0B93FCCF386957795679502
S1131120B395D9F73EF490958095709561957F4F6E
S11311308F4F9F4F089597F99F6780E870E060E0B4
S113114008959FEF80EC089500240A94161617065C
S113115018060906089500240A94121613061406A4
S113116005060895092E0394000C11F4882352F007
S1131170BB0F40F4BF2B11F460FF04C06F5F7F4FBF
S11311808F4F9F4F089557FD9058440F551F59F0A6
S11311905F3F71F04795880F97FB991F61F09F3F60
S11311A079F087950895121613061406551FF2CF89
S11311B04695F1DF08C0161617061806991FF1CFD9
S11311C086957105610508940895E894BB27662700
S11311D07727CB0197F90895FB01DC018D910190EC
S11311E080190110D9F3990B0895BB274A3031F4C3
S11311F0992322F4BDE2909581959F4F01C0BB27AE
S1131200FB015527AA27880F991FAA1FA41710F0BE
S1131210A41B83955051B9F7A05DAA3308F0A95DCA
S1131220A193009779F7B111B1931192CB0115C233
S1131230AEE0B0E0EDE1F9E0C8C20D891E898F8906
S1131240988D26E02C831A83098397FF02C080E0DF
S113125090E801979E838D83AE01455E5F4F698D53
S11312607A8DCE01019611D04D815E8157FD0AC061
S11312702F813885421753070CF49A01F801E20FC5
S1131280F31F10822E96E4E0BCC2ABE0B0E0EAE4C7
S1131290F9E08DC26C017B018A01FC011782168280
S11312A0838181FFBFC1CE0101963C01F601938188
S11312B0F70193FD859193FF81917F01882309F4C0
S11312C0ADC1853239F493FD859193FF81917F01FE
S11312D0853221F4B60190E0D0D1E8CF912C212CB5
S11312E0312CFFE1F315D8F08B3279F038F48032E9
S11312F079F08332A1F4232D20611DC08D3261F079
S1131300803369F4232D216016C0832D8260382E2A
S1131310E32DE4603E2E2AC0F32DF8601DC037FC97
S11313202DC020ED280F2A3040F08E32B9F436FC5F
S113133075C1232D2064322E19C036FE06C08AE002
S1131340989E200D1124922E11C0EAE02E9E200DAD
S11313501124222EF32DF0623F2E08C08C3621F486
S1131360832D8068382E02C0883641F4F70193FD3E
S1131370859193FF81917F018111B3CF982F9F7D38
S11313809554933028F40C5F1F4F9FE399830DC04D
S1131390833631F0833771F0833509F055C020C0AE
S11313A0F801808189830E5F1F4F88248394912CD8
S11313B0530112C02801F2E04F0E511CF801A08025
S11313C0B18036FE03C0692D70E002C06FEF7FEF7D
S11313D0C50138D14C018201F32DFF773F2E15C092
S11313E0280122E0420E511CF801A080B18036FE93
S11313F003C0692D70E002C06FEF7FEFC50117D104
S11314004C01F32DF0683F2E820133FC19C0822D6C
S113141090E088169906A0F4B60180E290E02DD100
S11314202A94F5CFF50137FC859137FE81915F0150
S1131430B60190E022D121102A9421E0821A910869
S11314408114910479F7E1C0843611F0893639F5B5
S1131450F80137FE07C060817181828193810C5F3E
S11314601F4F08C060817181072E000C880B990BF7
S11314700E5F1F4FF32DFF763F2E97FF09C0909507
S11314808095709561957F4F8F4F9F4FF0683F2EE9
S11314902AE030E0A3012DD1882E861844C0853778
S11314A031F4232D2F7EB22E2AE030E025C0932D77
S11314B0997FB92E8F36C1F018F4883579F0AEC013
S11314C0803719F0883721F0A9C0E92FE061BE2EDA
S11314D0B4FE0DC0FB2DF460BF2E09C034FE0AC05B
S11314E0292F2660B22E06C028E030E005C020E196
S11314F030E002C020E132E0F801B7FE07C06081AD
S11315007181828193810C5F1F4F06C0608171815C
S113151080E090E00E5F1F4FA301EBD0882E861869
S1131520FB2DFF773F2E36FE0DC0232D2E7FA22EDE
S1131530891458F434FE0BC032FC09C0832D8E7E0E
S1131540A82E05C0B82CA32C03C0B82C01C0B92CFC
S1131550A4FE0FC0FE01E80DF11D8081803321F44B
S11315609A2D997EA92E09C0A2FE06C0B394B39405
S113157004C08A2D867809F0B394A3FC10C0A0FEA1
S113158006C0B21480F4280C922C9B180DC0B2141F
S113159058F4B60180E290E070D0B394F8CFB2145E
S11315A018F42B1802C0982C212CA4FE0FC0B601ED
S11315B080E390E062D0A2FE16C0A1FC03C088E7DD
S11315C090E002C088E590E0B6010CC08A2D8678D0
S11315D051F0A1FE02C08BE201C080E2A7FC8DE2C3
S11315E0B60190E04AD0891430F4B60180E390E06B
S11315F044D09A94F8CF8A94F301E80DF11D8081C8
S1131600B60190E03AD08110F6CF222009F44ECEF4
S1131610B60180E290E031D02A94F7CFF6018681BA
S1131620978102C08FEF9FEF2B96E2E1DCC0FC01B3
S11316300590615070400110D8F7809590958E0FF9
S11316409F1F0895FC016150704001900110D8F76C
S1131650809590958E0F9F1F0895DC01FC01672FE4
S113166071917723E1F7329704C07C916D93708375
S11316706291AE17BF07C8F308950F931F93CF93DA
S1131680DF93FB01238121FD03C08FEF9FEF2CC06B
S113169022FF16C0468157812481358142175307A2
S11316A044F4A081B1819D012F5F3F4F318320839A
S11316B08C93268137812F5F3F4F3783268314C055
S11316C08B01EC01FB010084F185E02D0995892B48
S11316D0E1F6D80116968D919C911797019617966D
S11316E09C938E931697CE01DF91CF911F910F910A
S11316F00895FA01AA27283051F1203181F1E894A4
S11317006F936E7F6E5F7F4F8F4F9F4FAF4FB1E0F0
S11317103ED0B4E03CD0670F781F891F9A1FA11DEB
S1131720680F791F8A1F911DA11D6A0F711D811DEC
S1131730911DA11D20D009F468943F912AE0269FB1
S113174011243019305D3193DEF6CF010895462F10
S11317504770405D4193B3E00FD0C9F7F6CF462FF1
S11317604F70405D4A3318F0495D31FD405241935A
S113177002D0A9F7EACFB4E0A69597958795779517
S11317806795BA95C9F700976105710508959B019E
S1131790AC010A2E06945795479537952795BA9527
S11317A0C9F7620F731F841F951FA01D08952F9200
S11317B03F924F925F926F927F928F929F92AF92DD
S11317C0BF92CF92DF92EF92FF920F931F93CF932A
S11317D0DF93CDB7DEB7CA1BDB0B0FB6F894DEBFC1
S11317E00FBECDBF09942A88398848885F846E84E7
S11317F07D848C849B84AA84B984C884DF80EE8031
S1131800FD800C811B81AA81B981CE0FD11D0FB639
S1131810F894DEBF0FBECDBFED010895F894FFCF5D
S11318206473333233313A2074696D6520697320EF
S11318306E756C6C2E0A006473333233313A20793E
S11318406561722063616E2774206265206F76651E
S1131850722032313930206F72206C6573732074BA
S113186068616E20313939302E0A006473333233A3
S1131870313A206D6F6E74682063616E2774206244
S113188065207A65726F206F72206F76657220749E
S113189068616E2031322E0A006473333233313A78
S11318A0207765656B2063616E2774206265207AFA
S11318B065726F206F72206F766572207468616E36
S11318C020372E0A006473333233313A2064617452
S11318D0652063616E2774206265207A65726F20CB
S11318E06F72206F766572207468616E2033312EBA
S11318F00A006473333233313A20686F757220639F
S1131900616E2774206265206F7665722074686149
S11319106E203132206F72206C65737320312E0A71
S1131920006473333233313A206D696E7574652007
S113193063616E2774206265206F76657220746817
S1131940616E2035392E0A006473333233313A2004
S11319507365636F6E642063616E27742062652013
S11319606F766572207468616E2035392E0A0064C2
S113197073333233313A20686F75722063616E2796
S113198074206265206F766572207468616E2032FF
S1131990332E0A006473333233313A20666F726D2A
S11319A0617420697320696E76616C69642E0A0023
S11319B06473333233313A20777269746520736506
S11319C0636F6E64206661696C65642E0A006473DB
S11319D0333233313A207772697465206D696E75DC
S11319E07465206661696C65642E0A006473333221
S11319F033313A20777269746520686F7572206696
S1131A0061696C65642E0A006473333233313A20A1
S1131A107772697465207765656B206661696C65AA
S1131A20642E0A006473333233313A207772697456
S1131A30652064617465206661696C65642E0A00C2
S1131A406473333233313A20777269746520636585
S1131A506E7475727920616E64206D6F6E74682087
S1131A606661696C65642E0A006473333233313AFB
S1131A702077726974652079656172206661696C8A
S1131A8065642E0A006473333233313A206D756C09
S1131A907469706C652072656164206661696C6547
S1131AA0642E0A006473333233313A2077726974D6
S1131AB06520616C61726D31207365636F6E6420A3
S1131AC06661696C65642E0A006473333233313A9B
S1131AD020777269746520616C61726D31206D6963
S1131AE06E757465206661696C65642E0A006473A2
S1131AF0333233313A20777269746520616C6172D4
S1131B006D3120686F7572206661696C65642E0A98
S1131B10006473333233313A20777269746520611B
S1131B206C61726D31207765656B206661696C65E7
S1131B30642E0A006473333233313A207772697445
S1131B406520616C61726D32206D696E75746520FB
S1131B506661696C65642E0A006473333233313A0A
S1131B6020777269746520616C61726D3220686FD0
S1131B707572206661696C65642E0A006473333281
S1131B8033313A20777269746520616C61726D3209
S1131B90207765656B206661696C65642E0A006454
S1131BA073333233313A207265616420636F6E742B
S1131BB0726F6C206661696C65642E0A006473330D
S1131BC03233313A20777269746520636F6E7472B0
S1131BD06F6C206661696C65642E0A00647333322D
S1131BE033313A20726561642073746174757320B3
S1131BF06661696C65642E0A006473333233313A6A
S1131C0020726561642074696D656F75742E0A00B5
S1131C106473333233313A20726561642074656DC4
S1131C207065726174757265206661696C65642E95
S1131C300A006473333233313A2077726974652051
S1131C406F6666736574206661696C65642E0A004C
S1131C506473333233313A2072656164206F66668F
S1131C60736574206661696C65642E0A006473335D
S1131C703233313A206969635F696E69742069732C
S1131C80206E756C6C2E0A006473333233313A2043
S1131C906969635F6465696E6974206973206E7530
S1131CA06C6C2E0A006473333233313A20696963F1
S1131CB05F7772697465206973206E756C6C2E0A87
S1131CC0006473333233313A206969635F7265614A
S1131CD064206973206E756C6C2E0A006473333251
S1131CE033313A2064656C61795F6D7320697320C8
S1131CF06E756C6C2E0A006473333233313A207281
S1131D006563656976655F63616C6C6261636B20B2
S1131D106973206E756C6C2E0A0064733332333130
S1131D203A2069696320696E6974206661696C652B
S1131D30642E0A006473333233313A207772697443
S1131D406520737461747573206661696C65642EB3
S1131D500A006473333233313A206969632064655D
S1131D60696E6974206661696C65642E0A004D6150
S1131D7078696D20496E7465677261746564204486
S1131D805333323331004D6178696D20496E746587
S1131D906772617465640049494300647333323384
S1131DA0313A20696E6974206661696C65642E0A33
S1131DB0006473333233313A20736574206F736374
S1131DC0696C6C61746F72206661696C65642E0A5B
S1131DD0006473333233313A2073657420616C616B
S1131DE0726D3120696E74657272757074206661EB
S1131DF0696C65642E0A006473333233313A20739C
S1131E00657420616C61726D3220696E74657272E2
S1131E10757074206661696C65642E0A006473339E
S1131E203233313A207365742070696E20666169BB
S1131E306C65642E0A006473333233313A2073655F
S1131E4074207371756172652077617665206661AF
S1131E50696C65642E0A006473333233313A20733B
S1131E6065742033326B687A206F757470757420D2
S1131E706661696C65642E0A006473333233313AE7
S1131E8020636F6E7665727420746F207265676963
S1131E9073746572206661696C65642E0A006473EC
S1131EA0333233313A20736574206167696E672079
S1131EB06F6666736574206661696C65642E0A00DA
S1131EC0414D00504D00253034642D253032642DB1
S1131ED02530326420253032643A253032643A2584
S1131EE03032642025642E0A00253034642D2530D8
S1131EF032642D2530326420257320253032643A33
S1131F00253032643A253032642025642E0A004E8E
S1131F104F4E4500257325732573257300434C45A7
S1131F20415200202020202020202020202020207A
S1131F30202020202020202000416C61726D20662A
S1131F406C61673A2000486F75723A20004D696EE3
S1111F50757465733A005365636F6E643A00EE
S9030000FC
