S01800005254435F4453333233312D616C61726D2E737265632A
S113000033C000004CC000004AC0000048C00000DB
S113001046C0000044C0000042C0000040C00000D0
S11300203EC000003CC000003AC0000038C00000E0
S113003036C0000034C0000032C0000030C00000F0
S11300402EC000002CC000002AC0000028C0000000
S113005026C0000024C0000022C0000020C0000010
S11300601EC000001CC0000011241FBECFEFD8E04A
S1130070DEBFCDBF17E0A0E0B1E0EAEEFCE002C0D5
S113008005900D92AE3CB107D9F727E0AEECB7E08E
S113009001C01D92AD3DB207E1F72FD524C6B0CF04
S11300A0CF93DF931F92CDB7DEB74983DC0114965B
S11300B0ED91FC91159721E030E0AE014F5F5F4F69
S11300C080ED099591E0811101C090E0892F0F9096
S11300D0DF91CF91089530E0DC011696ED91FC910B
S11300E0179780ED099591E0811101C090E0892F67
S11300F00895EF92FF920F931F93CF93DF931F9274
S1130100CDB7DEB70097B9F1DC011E961C91113012
S1130110A1F5062F7C0121E0AE014F5F5F4F6EE039
S1130120DADF882369F08FE794E09F938F93D701F8
S11301301896ED91FC91199709950F900F9020C096
S113014049814F77002311F080E001C080E8482BFB
S113015049836EE0C701A4DF882389F08DE994E028
S11301609F938F93D7011896ED91FC911997099558
S11301700F900F9005C012E003C013E001C010E01F
S1130180812F0F90DF91CF911F910F91FF90EF90EE
S11301900895EF92FF920F931F93CF93DF931F92D3
S11301A0CDB7DEB70097A9F1DC011E961C91113082
S11301B091F5062F7C0121E0AE014F5F5F4F6EE0A9
S11301C08ADF882369F08FE794E09F938F93D701A8
S11301D01896ED91FC91199709950F900F901EC0F8
S11301E049814B7F602F660F660F462B49836EE073
S11301F0C70156DF882389F08DE994E09F938F939C
S1130200D7011896ED91FC91199709950F900F90CD
S113021005C012E003C013E001C010E0812F0F906D
S1130220DF91CF911F910F91FF90EF900895EF927E
S1130230FF920F931F93CF93DF931F92CDB7DEB737
S11302400097B1F1DC011E961C91113099F5062F2F
S11302507C0121E0AE014F5F5F4F6EE03CDF8823FD
S113026069F08FE794E09F938F93D7011896ED91EF
S1130270FC91199709950F900F901FC049814F7BEE
S1130280B0E40B9FC0011124482B49836EE0C701E1
S113029007DF882389F08DE994E09F938F93D7013A
S11302A01896ED91FC91199709950F900F9005C040
S11302B012E003C013E001C010E0812F0F90DF9122
S11302C0CF911F910F91FF90EF9008950F931F937B
S11302D0CF930097C1F0DC011E96CC91C130A9F4F4
S11302E0462F8C0160E1DCDE882389F082E195E011
S11302F09F938F93D8011896ED91FC9119970995C6
S11303000F900F9005C0C2E003C0C3E001C0C0E07D
S11303108C2FCF911F910F910895CF93DF93009766
S113032081F0FC018685813071F4E901CB01BA01C9
S11303302FE832EC45EF5DE3ECD353D4688380E0DF
S113034003C082E001C083E0DF91CF910895FF9262
S11303500F931F93CF93DF931F92CDB7DEB7009710
S113036009F4D1C0DC0118962D913C9119972115FF
S1130370310509F4CCC08C01ED91FC91309769F4FE
S11303808DE495E09F938F93F90109950F900F9059
S11303900F2EF3E0FF2EF02DBEC0DC0112968D91DE
S11303A09C911397892B69F488E695E09F938F932A
S11303B0F90109950F900F900F2EF3E0FF2EF02D09
S11303C0AAC0D80114968D919C911597892B69F434
S11303D085E895E09F938F93F90109950F900F900D
S11303E00F2EF3E0FF2EF02D96C0D80116968D91B6
S11303F09C911797892B69F481EA95E09F938F93D9
S1130400F90109950F900F900F2EF3E0FF2EF02DB8
S113041082C0D8011C968D919C911D97892B69F4FB
S11304208CEB95E09F938F93F90109950F900F90B2
S11304300F2EF3E0FF2EF02D6EC0D8011A968D9189
S11304409C911B97892B69F487ED95E09F938F937B
S1130450F90109950F900F900F2EF3E0FF2EF02D68
S11304605AC00995F82E882379F08AEF95E09F9376
S11304708F93D8011896ED91FC91199709950F90D7
S11304800F90FF24F39447C021E0AE014F5F5F4F0C
S11304906FE0C80120DE8823A9F08CEB94E09F93E1
S11304A08F93D8011896ED91FC9119970995D8016D
S11304B01296ED91FC91139709950F900F90FF24DC
S11304C0F39429C049814F7749836FE0C801E8DD7F
S11304D08823A9F084E196E09F938F93D80118961E
S11304E0ED91FC9119970995D8011296ED91FC9123
S11304F0139709950F900F90FF24F3940CC081E09B
S1130500F801868708C06894FF24F1F804C00F2E10
S1130510F3E0FF2EF02D8F2D0F90DF91CF911F91DF
S11305200F91FF9008951F93CF93DF930097C1F02D
S1130530FC0116851130B1F4EC010280F381E02D49
S11305400995882359F082E396E09F938F93E88579
S1130550F98509950F900F90812F05C01E8603C061
S113056082E001C083E0DF91CF911F910895EF9263
S1130570FF920F931F93CF93DF931F92CDB7DEB7F4
S11305800097C9F1DC011E961C911130B1F5062FBC
S11305907C0121E0AE014F5F5F4F6FE09CDD88235B
S11305A069F08CEB94E09F938F93D7011896ED91AB
S11305B0FC91199709950F900F9022C041E050E0EB
S11305C002C0440F551F0A95E2F7409589814823DC
S11305D049836FE0C70164DD882389F084E196E0F4
S11305E09F938F93D7011896ED91FC9119970995D4
S11305F00F900F9005C012E003C013E001C010E09B
S1130600812F0F90DF91CF911F910F91FF90EF9069
S11306100895EF92FF920F931F93CF93DF931F924E
S1130620CDB7DEB70097B1F1DC011E961C911130F5
S113063099F5062F7C0121E0AE014F5F5F4F6FE01B
S11306404ADD882369F08CEB94E09F938F93D70164
S11306501896ED91FC91199709950F900F901FC072
S11306604981477F602F660F660F660F462B4983CB
S11306706FE0C70115DD882389F084E196E09F933C
S11306808F93D7011896ED91FC91199709950F90C6
S11306900F9005C012E003C013E001C010E0812FE9
S11306A00F90DF91CF911F910F91FF90EF900895DC
S11306B0CF93DF931F92CDB7DEB7EEECF7E02FE0D8
S11306C0DF011D922A95E9F72BE034E03183208382
S11306D022E134E03383228324E134E03783268328
S11306E029E434E03583248329E534E035872487FD
S11306F02AE534E03187208793878287CF0127DE7C
S1130700882349F08BE796E09F938F93D3D00F9083
S11307100F9081E072C061E08EEC97E0EADC882300
S113072061F081E996E09F938F93C4D08EEC97E0BB
S1130730FADE0F900F9081E060C061E08EEC97E0EC
S113074028DD882361F081EB96E09F938F93B2D0EC
S11307508EEC97E0E8DE0F900F9081E04EC060E0F1
S11307608EEC97E064DD882361F08AEC96E09F9339
S11307708F93A0D08EEC97E0D6DE0F900F9081E09F
S11307803CC060E08EEC97E044DF882361F08BEEA0
S113079096E09F938F938ED08EEC97E0C4DE0F90FB
S11307A00F9081E02AC09E012F5F3F4F40E050E050
S11307B0BA018EEC97E0B1DD882361F08DE097E01B
S11307C09F938F9377D08EEC97E0ADDE0F900F90D0
S11307D081E013C069818EEC97E078DD882361F0B5
S11307E082E397E09F938F9365D08EEC97E09BDE36
S11307F00F900F9081E001C080E00F90DF91CF91C6
S11308000895682F8EEC97E0B2DE91E0811101C06B
S113081090E0892F08951092B90088E48093B8007D
S113082080E0089580E00895AF92BF92CF92DF9266
S1130830EF92FF920F931F93CF93DF93211531050E
S1130840E1F079016A01B62E082F000FAA24A394BF
S1130850A00E162FC0E0D0E0802F5AD0812F5AD09E
S11308608A2D56D0CC0DDD1D67D088831F5FC12F24
S1130870CB19D0E0CE15DF0578F380E0DF91CF917E
S11308801F910F91FF90EF90DF90CF90BF90AF90AA
S113089008951F93CF93DF93162FEA01880F38D062
S11308A0812F38D0888136D080E0DF91CF911F919D
S11308B008950895CF93DF93CDB7DEB7DF91CF913D
S11308C0089594EA9093BC00ECEBF0E090819923B6
S11308D0ECF79091B900987F983011F09031A1F421
S11308E08093BB0084E88093BC00ECEBF0E0808153
S11308F08823ECF79091B900987F983139F081E022
S1130900903429F480E0089581E0089580E008950A
S1130910D8CF08958093BB0084E88093BC00ECEBAF
S1130920F0E080818823ECF79091B900987F81E012
S1130930983209F480E0089584E88093BC00ECEBDD
S1130940F0E080818823ECF78091BB0008958AB1A0
S1130950806F8AB98AB18B608AB9209A0895CF933F
S1130960DF9300D000D0CDB7DEB719821A821B8284
S11309701C82FE01319627E030E090E061E0AC019A
S1130980022E02C0559547950A94E2F740FD608314
S11309902150310931962330310589F78BB18F709D
S11309A08BB92BB1498130E8439FC00111249A814E
S11309B030E4939FA0011124482B422B9B8180E2B9
S11309C0989F90011124242B9C8130E1939FC001B6
S11309D01124822B8BB95B9A85E08A95F1F700008C
S11309E05B9835E03A95F1F700000F900F900F9067
S11309F00F90DF91CF910895CF93C82F58985998AD
S1130A005B98ADDF8C2F8295807FA9DFCF9108950D
S1130A1057985998589A5B9A85E08A95F1F700009F
S1130A2089B15B9895E09A95F1F700005B9A95E09F
S1130A309A95F1F700005B9895E09A95F1F700001C
S1130A4088234CF35898579A08952FEF81EE94E039
S1130A50215080409040E1F700C0000059985B9815
S1130A60589880E37CDF25E32A95F1F7000080E3C2
S1130A7076DF8FE193E00197F1F700C0000080E397
S1130A806EDF8FE391E00197F1F700C0000088E288
S1130A9066DFBEDF88E2B0DFBBDF88E0ADDFB8DF52
S1130AA081E0AADFB5DF86E0A7DFB2DF8CE0A4CF68
S1130AB008954DDFCADF2FEF81EE94E0215080408E
S1130AC09040E1F700C000000895813061F0823069
S1130AD099F481E096DE83EA97E09F938F93EADEB0
S1130AE00F900F90089580E08CDE88EB97E09F9341
S1130AF08F93E0DE0F900F900895DBDF85E695E09D
S1130B00D7DD21E030E0811102C020E030E0C901EE
S1130B1008950CD0AEC0A6D040F09DD030F021F4A2
S1130B205F3F19F08FC05111D8C092C0B3D098F371
S1130B309923C9F35523B1F3951B550BBB27AA275A
S1130B4062177307840738F09F5F5F4F220F331FCC
S1130B50441FAA1FA9F333D00E2E3AF0E0E830D098
S1130B6091505040E695001CCAF729D0FE2F27D09B
S1130B70660F771F881FBB1F261737074807AB0769
S1130B80B0E809F0BB0B802DBF01FF2793585F4FDE
S1130B902AF09E3F510568F055C09FC05F3FECF3BB
S1130BA0983EDCF3869577956795B795F7959F5FA3
S1130BB0C9F7880F911D9695879597F90895E1E0F7
S1130BC0660F771F881FBB1F621773078407BA0756
S1130BD020F0621B730B840BBA0BEE1F88F7E095B1
S1130BE0089504D06894B11178C008955BD088F05A
S1130BF09F5790F0B92F9927B751A0F0D1F0660F05
S1130C00771F881F991F1AF0BA95C9F712C0B1301F
S1130C1081F062D0B1E008955FC0672F782F8827F4
S1130C20B85F39F0B93FCCF3869577956795B3955E
S1130C30D9F73EF490958095709561957F4F8F4FCD
S1130C409F4F089597F99F6780E870E060E00895EA
S1130C509FEF80EC089500240A94161617061806D0
S1130C600906089500240A941216130614060506AC
S1130C700895092E0394000C11F4882352F0BB0F3D
S1130C8040F4BF2B11F460FF04C06F5F7F4F8F4FA0
S1130C909F4F089557FD9058440F551F59F05F3FDB
S1130CA071F04795880F97FB991F61F09F3F79F08A
S1130CB087950895121613061406551FF2CF46950C
S1130CC0F1DF08C0161617061806991FF1CF86958E
S1130CD07105610508940895E894BB276627772772
S10D0CE0CB0197F90895F894FFCFB3
S1130CEA6473333233313A2074696D652069732031
S1130CFA6E756C6C2E0A006473333233313A207980
S1130D0A6561722063616E2774206265206F76655F
S1130D1A722032313930206F72206C6573732074FB
S1130D2A68616E20313939302E0A006473333233E4
S1130D3A313A206D6F6E74682063616E2774206285
S1130D4A65207A65726F206F72206F7665722074DF
S1130D5A68616E2031322E0A006473333233313AB9
S1130D6A207765656B2063616E2774206265207A3B
S1130D7A65726F206F72206F766572207468616E77
S1130D8A20372E0A006473333233313A2064617493
S1130D9A652063616E2774206265207A65726F200C
S1130DAA6F72206F766572207468616E2033312EFB
S1130DBA0A006473333233313A20686F75722063E0
S1130DCA616E2774206265206F766572207468618B
S1130DDA6E203132206F72206C65737320312E0AB3
S1130DEA006473333233313A206D696E7574652049
S1130DFA63616E2774206265206F76657220746859
S1130E0A616E2035392E0A006473333233313A2045
S1130E1A7365636F6E642063616E27742062652054
S1130E2A6F766572207468616E2035392E0A006403
S1130E3A73333233313A20686F75722063616E27D7
S1130E4A74206265206F766572207468616E203240
S1130E5A332E0A006473333233313A20666F726D6B
S1130E6A617420697320696E76616C69642E0A0064
S1130E7A6473333233313A20777269746520736547
S1130E8A636F6E64206661696C65642E0A0064731C
S1130E9A333233313A207772697465206D696E751D
S1130EAA7465206661696C65642E0A006473333262
S1130EBA33313A20777269746520686F75722066D7
S1130ECA61696C65642E0A006473333233313A20E3
S1130EDA7772697465207765656B206661696C65EC
S1130EEA642E0A006473333233313A207772697498
S1130EFA652064617465206661696C65642E0A0004
S1130F0A6473333233313A207772697465206365C6
S1130F1A6E7475727920616E64206D6F6E746820C8
S1130F2A6661696C65642E0A006473333233313A3C
S1130F3A2077726974652079656172206661696CCB
S1130F4A65642E0A006473333233313A206D756C4A
S1130F5A7469706C652072656164206661696C6588
S1130F6A642E0A006473333233313A207772697417
S1130F7A6520616C61726D31207365636F6E6420E4
S1130F8A6661696C65642E0A006473333233313ADC
S1130F9A20777269746520616C61726D31206D69A4
S1130FAA6E757465206661696C65642E0A006473E3
S1130FBA333233313A20777269746520616C617215
S1130FCA6D3120686F7572206661696C65642E0ADA
S1130FDA006473333233313A20777269746520615D
S1130FEA6C61726D31207765656B206661696C6529
S1130FFA642E0A006473333233313A207772697487
S113100A6520616C61726D32206D696E757465203C
S113101A6661696C65642E0A006473333233313A4B
S113102A20777269746520616C61726D3220686F11
S113103A7572206661696C65642E0A0064733332C2
S113104A33313A20777269746520616C61726D324A
S113105A207765656B206661696C65642E0A006495
S113106A73333233313A207265616420636F6E746C
S113107A726F6C206661696C65642E0A006473334E
S113108A3233313A20777269746520636F6E7472F1
S113109A6F6C206661696C65642E0A00647333326E
S11310AA33313A20726561642073746174757320F4
S11310BA6661696C65642E0A006473333233313AAB
S11310CA20726561642074696D656F75742E0A00F7
S11310DA6473333233313A20726561642074656D06
S11310EA7065726174757265206661696C65642ED7
S11310FA0A006473333233313A2077726974652093
S113110A6F6666736574206661696C65642E0A008D
S113111A6473333233313A2072656164206F6666D0
S113112A736574206661696C65642E0A006473339E
S113113A3233313A206969635F696E69742069736D
S113114A206E756C6C2E0A006473333233313A2084
S113115A6969635F6465696E6974206973206E7571
S113116A6C6C2E0A006473333233313A2069696332
S113117A5F7772697465206973206E756C6C2E0AC8
S113118A006473333233313A206969635F7265618B
S113119A64206973206E756C6C2E0A006473333292
S11311AA33313A2064656C61795F6D732069732009
S11311BA6E756C6C2E0A006473333233313A2072C2
S11311CA6563656976655F63616C6C6261636B20F4
S11311DA6973206E756C6C2E0A0064733332333172
S11311EA3A2069696320696E6974206661696C656D
S11311FA642E0A006473333233313A207772697485
S113120A6520737461747573206661696C65642EF4
S113121A0A006473333233313A206969632064659E
S113122A696E6974206661696C65642E0A004D6191
S113123A78696D20496E74656772617465642044C7
S113124A5333323331004D6178696D20496E7465C8
S113125A67726174656400494943006473333233C5
S113126A313A20696E6974206661696C65642E0A74
S113127A006473333233313A20736574206F7363B5
S113128A696C6C61746F72206661696C65642E0A9C
S113129A006473333233313A207365742070696E93
S11312AA206661696C65642E0A00647333323331D3
S11312BA3A2073657420737175617265207761765B
S11312CA65206661696C65642E0A0064733332337F
S11312DA313A207365742033326B687A206F7574DF
S11312EA707574206661696C65642E0A00647333D0
S11312FA3233313A20636F6E7665727420746F20CC
S113130A7265676973746572206661696C65642EB7
S113131A0A006473333233313A2073657420616787
S113132A696E67206F6666736574206661696C65A9
S113133A642E0A00414D00504D00253034642D2599
S113134A3032642D2530326420253032643A253017
S113135A32643A253032642025642E0A002530345A
S113136A642D253032642D253032642025732025DE
S113137A3032643A253032643A25303264202564A6
S113138A2E0A006473333233313A20697271206150
S113139A6C61726D322E0A006473333233313A202F
S11113AA69727120616C61726D312E0A00004F
S9030000FC
