S01800005254435F4453333233312D616C61726D2E737265632A
S113000033C000004CC000004AC0000048C00000DB
S113001046C0000044C0000042C0000040C00000D0
S11300203EC000003CC000003AC0000038C00000E0
S113003036C0000034C0000032C0000030C00000F0
S11300402EC000002CC000002AC0000028C0000000
S113005026C0000024C0000022C0000020C0000010
S11300601EC000001CC0000011241FBECFEFD8E04A
S1130070DEBFCDBF11E0A0E0B1E0E8E2F2E002C0F3
S113008005900D92A030B107D9F721E0A0E0B1E0CE
S113009001C01D92A030B207E1F7C0D0C3C0B0CFF9
S11300A08AB1806F8AB98AB18B608AB9209A08951F
S11300B0CF93DF9300D000D0CDB7DEB719821A8278
S11300C01B821C82FE01319627E030E090E061E063
S11300D0AC01022E02C0559547950A94E2F740FD03
S11300E060832150310931962330310589F78BB172
S11300F08F708BB92BB1498130E8439FC001112423
S11301009A8130E4939FA0011124482B422B9B81B8
S113011080E2989F90011124242B9C8130E1939FCD
S1130120C0011124822B8BB95B9A85E08A95F1F783
S113013000005B9835E03A95F1F700000F900F90BE
S11301400F900F90DF91CF910895CF93C82F5898B7
S113015059985B98ADDF8C2F8295807FA9DFCF9172
S1130160089557985998589A5B9A85E08A95F1F7BB
S1130170000089B15B9895E09A95F1F700005B9ACD
S113018095E09A95F1F700005B9895E09A95F1F760
S1130190000088234CF35898579A08952FEF81EE66
S11301A094E0215080409040E1F700C0000059984D
S11301B05B98589880E37CDF25E32A95F1F70000EB
S11301C080E376DF8FE193E00197F1F700C0000050
S11301D080E36EDF8FE391E00197F1F700C0000048
S11301E088E266DFBEDF88E2B0DFBBDF88E0ADDF38
S11301F0B8DF81E0AADFB5DF86E0A7DFB2DF8CE0FD
S1130200A4CF08954DDFCADF2FEF81EE94E0215093
S113021080409040E1F700C000000895F3DF80E0E3
S10B022090E00895F894FFCF6B
S9030000FC
